:020000040800F2
:100000000000082029030008310300083503000818
:100010007D03000881030008C903000800000000F8
:10002000000000000000000000000000F1130008C4
:10003000150400080000000021140008A1110008A8
:100040002D0400082D0400082D0400082D040008CC
:100050002D0400082D0400082D0400082D040008BC
:100060002D0400082D0400082D0400082D040008AC
:100070002D0400082D0400082D0400082D0400089C
:100080002D0400082D0400082D0400082D0400088C
:100090002D0400082D0400082D0400082D0400087C
:1000A0002D0400082D0400082D0400082D0400086C
:1000B0002D0400082D0400082D0400082D0400085C
:1000C0002D0400082D0400082D0400082D0400084C
:1000D0002D0400082D0400082D0400082D0400083C
:1000E0002D0400082D0400082D0400082D0400082C
:1000F0002D0400082D0400082D0400082D0400081C
:100100002D0400082D0400082D0400082D0400080B
:100110002D0400082D0400082D0400082D040008FB
:100120002D0400082D0400082D0400082D040008EB
:100130002D0400085D1300082D0400082D0400089C
:100140002D0400082D0400082D0400082D040008CB
:100150002D0400082D0400082D0400082D040008BB
:100160002D0400082D0400082D0400082D040008AB
:100170002D0400082D0400082D04000800000000D4
:100180002D0400082D0400082D0400082D0400088B
:100190002D0400082D0400082D0400082D0400087B
:1001A0002D0400082D0400082D0400082D0400086B
:1001B0002D0400082D0400082D0400082D0400085B
:1001C0002D0400082D040008000000002D04000884
:1001D0002D0400082D0400082D0400082D0400083B
:1001E0002D0400082D0400082D0400082D0400082B
:1001F0002D0400082D04000800B583B000F0D2FEE5
:10020000384B394A1360394A136039490CE00A689F
:100210004B6801F10C04886803E01168196004332D
:1002200004329842F9D82146324B9942EFD32E4BF3
:100230001A68314B9A4204D12C4B1A682F4B9A42C0
:1002400000D0FEE7274B2E4A13602E4A13602E4B38
:100250000AE0194651F8082B5B6802E000201060A4
:1002600004329A42FAD30B46284A9342F1D3244BE4
:100270001B6813B9234B1B6803B1FEE700F0E4FFD2
:1002800001A8694600F028FE214C224B1C1BA4103B
:10029000002504E01E4B53F8253098470135AC4249
:1002A000F8DC1D4C1D4B1C1BA410002504E01A4B50
:1002B00053F8253098470135AC42F8DC0198009995
:1002C00001F004F80546164C164B1C1BA41004E064
:1002D000013C134B53F824309847002CF8DC284697
:1002E00000F0CCFDBABADECA000000207400002085
:1002F00030040008480400087856341232547698C6
:1003000078000020F001002048040008580400088C
:10031000580400085804000858040008580400084D
:10032000580400085804000808B5FFF765FF00BF2F
:1003300000BEFEE71EF0040F0CBFEFF30880EFF3E2
:1003400009807146364A10472DE9F04182B00746D0
:100350008846084B5D6B9C6B9E6A074800F0D0FD99
:10036000CDF80080384631462A46234600F026FE66
:1003700000BEFEE700ED00E0D026000800BEFEE76C
:100380001EF0040F0CBFEFF30880EFF309807146F5
:10039000244A10472DE9F04182B007468846084BB1
:1003A0005D6B9C6B9E6A074800F0AAFDCDF800804B
:1003B000384631462A46234600F000FE00BEFEE7DE
:1003C00000ED00E0E02600081EF0040F0CBFEFF384
:1003D0000880EFF309807146134A10472DE9F04178
:1003E00082B007468846084B5D6B9C6B9E6A074847
:1003F00000F086FDCDF80080384631462A46234677
:1004000000F0DCFD00BEFEE700ED00E0EC26000899
:1004100000BEFEE700BEFEE700BEFEE7704700003C
:100420004903000895030008DD03000800BEFEE74D
:10043000442700080000002078000020442700081E
:10044000000000100000001078000020F4010020DF
:08045000000000100000001084
:1004600010B50446074B1B680748A0FB0330800902
:1004700000F08AF84FF0FF302146002200F044F8E7
:10048000002010BD0C000020D34D621008B5074AB3
:10049000136843F400731360032000F017F80F2073
:1004A000FFF7DEFF00F014FF002008BD003C024013
:1004B000024A136801331360704700BFE401002053
:1004C000014B1868704700BFE401002010B50446D6
:1004D000C31E042B03D90948A42100F005FD04F034
:1004E0000700074AD36823F4E0631B041B0C43EAAC
:1004F0000020044B0343D36010BD00BF70240008EC
:1005000000ED00E00000FA0570B504460E46154601
:100510000F2A03D91848BC2100F0E6FC0F2E03D99E
:100520001548BD2100F0E0FC144BDB68C3F3022347
:10053000C3F10702042A28BF0422191D062901D984
:10054000D81E00E00020012303FA02F2013A3240F3
:1005500002FA00F183405A1E2A400A43002C06DAB0
:1005600004F00F041201D2B2054B1A5570BD1201EE
:10057000D2B2044B1A5570BD7024000800ED00E0A3
:1005800014ED00E000E400E00138B0F1807F0AD211
:10059000064B5860F021064A82F82310002098602C
:1005A00007221A6070470120704700BF10E000E08A
:1005B00000ED00E010B50446042818BF002804D060
:1005C000094840F2B31100F08FFC042C05D1074A12
:1005D000136843F00403136010BD044A136823F04A
:1005E0000403136010BD00BF7024000810E000E099
:1005F00010B582B01C4B1A6C42F080521A641B6C0E
:1006000003F080530193019B184A136843F480332D
:100610001360FFF755FF044605E0FFF751FF001B8D
:10062000B0F57A7F1AD8114B5B6813F4803FF4D091
:100630000E4A136843F400331360FFF741FF04468A
:1006400005E0FFF73DFF001BB0F57A7F08D8074BA8
:100650005B6813F4003FF4D0002002E0032000E0C8
:10066000032002B010BD00BF0038024000700040FF
:10067000214B9B6803F00C03042B3AD0082B01D0CC
:100680001E4870471C4B586800F03F005B6813F42D
:10069000800F0FD01A4BB3FBF0F3174A506847F6A0
:1006A000C072104092FAA2F2B2FA82F2D04000FB7D
:1006B00003F30EE0114BB3FBF0F30F4A506847F61B
:1006C000C072104092FAA2F2B2FA82F2D04000FB5D
:1006D00003F3094A506800F440304FF4403292FA74
:1006E000A2F2B2FA82F2D04001304000B3FBF0F047
:1006F00070470348704700BF003802400024F400F0
:1007000000127A0070B504460D460368013B0E2BBB
:1007100004D98A484FF4137100F0E6FB0F2D04D979
:10072000864840F24D2100F0DFFB854B1B6803F04B
:100730000F03AB420BD2824A136823F00F032B4303
:100740001360136803F00F03AB4240F0E6802368A8
:1007500013F0020F1ED0A368002B18BF802B12D0FD
:10076000902B10D0A02B0ED0B02B0CD0C02B0AD0C9
:10077000D02B08D0E02B06D0F02B04D06F484FF4DC
:10078000197100F0B1FB6F498B6823F0F002A36888
:1007900013438B60236813F0010F58D06368022B5A
:1007A00004D9664840F26B2100F09EFB6268012A82
:1007B00005D1644B1B6813F4003F0ED1AFE0022A51
:1007C00005D1604B1B6813F0007F06D1A9E05D4B9B
:1007D0001B6813F0020F00F0A6805A498B6823F0C3
:1007E000030313438B60FFF76BFE06466368012B20
:1007F0000FD107E0FFF764FE801B41F28833984277
:1008000000F293804F4B9B6803F00C03042BF1D153
:100810001DE0022B16D107E0FFF752FE801B41F2CC
:100820008833984200F28380464B9B6803F00C03A8
:10083000082BF1D10BE0FFF743FE801B41F2883318
:10084000984276D83F4B9B6813F00C0FF3D13C4B8A
:100850001B6803F00F03AB420AD9394A136823F02F
:100860000F032B431360136803F00F03AB4262D1F5
:10087000236813F0040F1AD0E368002B18BFB3F5F8
:10088000805F0DD0B3F5A05F0AD0B3F5C05F07D08D
:10089000B3F5E05F04D0294840F2BE2100F024FB0C
:1008A00028498B6823F4E052E36813438B60236884
:1008B00013F0080F1BD02369002B18BFB3F5805F1E
:1008C0000DD0B3F5A05F0AD0B3F5C05F07D0B3F584
:1008D000E05F04D0194840F2C52100F005FB194A39
:1008E000936823F46043216943EAC1039360FFF7EF
:1008F000BFFE144B9B6803F0F003F02292FAA2F2C1
:10090000B2FA82F2D340104AD35CD8400F4B186041
:100910000F20FFF7A5FD002070BD012070BD012054
:1009200070BD012070BD012070BD032070BD03208B
:1009300070BD032070BD012070BD00BFA42400085D
:10094000003C024000380240FC2600080C00002059
:10095000014B1868704700BF0C00002030B583B011
:10096000044603680F2B04D9AD4840F2024100F061
:10097000BBFA236813F0010F73D06368002B18BF14
:10098000B3F5803F07D0B3F5A02F04D0A4484FF4AF
:10099000816100F0A9FAA34B9B6803F00C03042BC0
:1009A0000AD0A04B9B6803F00C03082B0DD19D4B84
:1009B0005B6813F4800F08D09A4B1B6813F4003F58
:1009C0004FD06368002B4CD133E26368B3F5803FAE
:1009D00005D1944A136843F48033136020E04BB987
:1009E000904B1A6822F480321A601A6822F480222E
:1009F0001A6015E0B3F5A02F09D18A4B1A6842F4AA
:100A000080221A601A6842F480321A6008E0854B2E
:100A10001A6822F480321A601A6822F480221A605E
:100A200063687BB1FFF74CFD054605E0FFF748FD25
:100A3000401B642800F2FF817A4B1B6813F4003FCF
:100A4000F4D00EE0FFF73CFD054605E0FFF738FD6A
:100A5000401B642800F2F181724B1B6813F4003FC5
:100A6000F4D1236813F0020F6ED0E368012B04D990
:100A70006B4840F23A4100F037FA23691F2B04D942
:100A8000674840F23B4100F02FFA664B9B6813F039
:100A90000C0F0AD0634B9B6803F00C03082B1BD18F
:100AA000604B5B6813F4800F16D15E4B1B6813F02C
:100AB000020F03D0E368012B40F0C181594803685D
:100AC00023F0F8012369F82292FAA2F2B2FA82F234
:100AD00093400B43036037E0E3680BB3514A13685C
:100AE00043F001031360FFF7EBFC054605E0FFF759
:100AF000E7FC401B022800F2A4814A4B1B6813F05C
:100B0000020FF4D04748036823F0F8012369F82264
:100B100092FAA2F2B2FA82F293400B43036013E01E
:100B2000404A136823F001031360FFF7C9FC054630
:100B300005E0FFF7C5FC401B022800F28481394B19
:100B40001B6813F0020FF4D1236813F0080F32D0A2
:100B50006369012B04D9324840F27B4100F0C4F9AB
:100B60006369A3B12F4A536F43F001035367FFF743
:100B7000A7FC054605E0FFF7A3FC401B022800F296
:100B80006481284B5B6F13F0020FF4D013E0254A09
:100B9000536F23F001035367FFF792FC054605E00E
:100BA000FFF78EFC401B022800F251811D4B5B6F4A
:100BB00013F0020FF4D1236813F0040F7BD0A36865
:100BC000052B18BF012B04D9154840F2A54100F0B0
:100BD0008BF9144B1A6C42F080521A641B6C03F0B0
:100BE00080530193019B104A136843F48073136090
:100BF000FFF766FC054605E0FFF762FC401B642832
:100C000000F22781084B1B6813F4807FF4D0A3689F
:100C1000012B0BD1034A136F43F00103136725E047
:100C2000D424000800380240007000404BB9914BBA
:100C30001A6F22F001021A671A6F22F004021A6773
:100C400014E0052B09D18B4B1A6F42F004021A678E
:100C50001A6F42F001021A6708E0864B1A6F22F001
:100C600001021A671A6F22F004021A67A3688BB197
:100C7000FFF726FC054607E0FFF722FC401B41F288
:100C80008833984200F2E7807A4B1B6F13F0020F13
:100C9000F2D010E0FFF714FC054607E0FFF710FC68
:100CA000401B41F28833984200F2D780714B1B6F92
:100CB00013F0020FF2D1A369022B04D96E4840F25F
:100CC000DA4100F011F9A369002B00F0C880694AED
:100CD000926802F00C02082A00F0C380022B40F058
:100CE0009380E369002B18BFB3F5800F04D06248EE
:100CF00040F2E34100F0F8F8236A023B3D2B04D9AF
:100D00005D4840F2E44100F0EFF8636A323BB3F52E
:100D1000BF7F04D9584840F2E54100F0E5F8A36AE6
:100D2000022B18BF042B08D0062B06D0082B04D0AA
:100D3000514840F2E64100F0D7F8E36A023B0D2B40
:100D400004D94D4840F2E74100F0CEF8236B023B56
:100D5000052B04D948484FF49D6100F0C5F8454A79
:100D6000136823F080731360FFF7AAFB054604E0C5
:100D7000FFF7A6FB401B022875D83E4B1B6813F0FB
:100D8000007FF5D1E269236A1A43636A47F6C071AE
:100D900091FAA1F1B1FA81F18B401A43A36A5B0881
:100DA000013B4FF4403191FAA1F1B1FA81F18B404E
:100DB0001343E26A4FF0706191FAA1F1B1FA81F147
:100DC0008A4043EA0201236B4FF0E04292FAA2F21A
:100DD000B2FA82F203FA02F241EA0203254A5360B0
:100DE000136843F080731360FFF76AFB044604E066
:100DF000FFF766FB001B022837D81E4B1B6813F059
:100E0000007FF5D0002033E01A4A136823F0807386
:100E10001360FFF755FB044604E0FFF751FB001B8E
:100E2000022824D8134B1B6813F0007FF5D1002053
:100E30001EE001201CE003201AE0032018E001203E
:100E400016E0032014E0032012E0032010E003204A
:100E50000EE003200CE003200AE0032008E000205D
:100E600006E0012004E0032002E0032000E003206C
:100E700003B030BD00380240D4240008FEE700BFB4
:100E800008B5034800F056F80120FFF7F7FF00BF50
:100E90000825000808B50D4B1B6813B90C4A0B4B0D
:100EA0001A600A4B1A68C31C23F003031344094950
:100EB0008B4206D900F062FB0C2303604FF0FF3039
:100EC00008BD02490B60104608BD00BF7C00002031
:100ED000F401002000FC072001230360014B0B609C
:100EE000704700BF0400002008B503460A460348C7
:100EF000194600F005F8FFF7C3FF00BF5C250008A6
:100F00000FB400B583B004AB53F8042B0193084829
:100F1000802100F0C1FB011E03DD054800F03EF812
:100F20000146084603B05DF804EB04B0704700BF0B
:100F30008400002010B5044600F05CFB014620460A
:100F400000F02CF80248012100F028F810BD00BF85
:100F50004C26000810B400221AE04FF06043D3F88A
:100F6000803E13F0010F06D04FF06043D3F8003EEF
:100F700013F0010F01D110460DE04FF060431B68E4
:100F8000002BFAD004784FF060431C70013201301E
:100F90008A42E2D308465DF8044B704708B5FFF774
:100FA000D9FF08BD08B500F081F8024B024A9A60EB
:100FB00008BD00BF00ED00E000000008F8B50446E1
:100FC0000D4617461E462648FFF79AFF254821681A
:100FD000FFF796FF24486168FFF792FF2348A16856
:100FE000FFF78EFF2248E168FFF78AFF2148216959
:100FF000FFF786FF20486169FFF782FF1F48A1695C
:10100000FFF77EFF1E48E169FFF77AFF1D48FFF7F3
:1010100077FF1D482946FFF773FF1C4CE16A1C4807
:10102000FFF76EFF216B1B48FFF76AFFE16B1A4861
:10103000FFF766FF15F0800F03D018483946FFF719
:101040005FFF15F4004F03D015483146FFF758FFF6
:101050001448FFF755FF14480699FFF751FFF8BDF4
:10106000B4250008C4250008D4250008E42500089C
:10107000F425000804260008142600082426000889
:1010800034260008442600085026000800ED00E041
:1010900060260008702600088026000890260008B8
:1010A000A0260008B0260008B82600080B4B1A68D6
:1010B00042F001021A60002199601868084A024053
:1010C0001A60084A5A601A6822F480221A60D960AD
:1010D0004FF00062044B9A60704700BF0038024036
:1010E000FFFFF6FE1030002400ED00E0224B9B686D
:1010F00003F00C03042B07D0082B09D0002B2DD1B3
:101100001E4A1F4B1A602CE01E4A1D4B1A6028E035
:10111000194B5A685B6803F03F0312F4800F09D043
:10112000184AB2FBF3F2144B5B68C3F3881303FB5A
:1011300002F208E0114AB2FBF3F30F4A5168C1F31F
:10114000881101FB03F20C4B5B68C3F301430133CD
:101150005B00B2FBF3F30A4A136002E0074A084B54
:101160001A60054B9B68C3F30313074AD15C044A1A
:101170001368CB4013607047003802400024F4002D
:101180000C00002000127A00FC260008034B1B68AC
:101190001BB1024A1368013B13607047EC01002049
:1011A00008B5FFF785F9FFF7F1FF08BD10B594B05A
:1011B000224B1A6C42F080521A641B6C03F080536D
:1011C0000093009B1E4B1A6842F440421A601B6851
:1011D00003F440430193019B012307934FF48033B1
:1011E00008934FF480030E9308230F934FF4C072BB
:1011F00010920224119412930D9407A8FFF7AEFBEE
:10120000FFF7F6F90F2302930394002304934FF49E
:10121000A05305934FF48053069302A80621FFF7CD
:1012200071FAFFF795FB074BA3FB00308009FFF72E
:10123000ABF90420FFF7BEF914B010BD003802402E
:1012400000700040D34D621010B5BFF34F8FBFF355
:101250006F8F1D4B0021C3F850125A6942F40032BF
:101260005A61BFF34F8FBFF36F8FC3F88410BFF382
:101270004F8FD3F88040C4F34E3000E01846C4F3DB
:10128000C90200E01A4643F6E07303EA401343EA5A
:1012900082730D49C1F86032531E002AF2D1431EF9
:1012A0000028EBD1BFF34F8F4B6943F480334B6180
:1012B000BFF34F8FBFF36F8FFFF7E8F8FFF776FFAD
:1012C000FFF714FF10BD00BF00ED00E0704700BF46
:1012D000704700BF00B583B0002301930B4A136829
:1012E00043F0010313600A4B186860B101A900F0D4
:1012F000F5F8019B3BB14FF08052064B1A60BFF3EB
:101300004F8FBFF36F8F03B05DF804FB0401002023
:101310000801002004ED00E000B583B00023019334
:101320000B4A136843F0020313600A4B186860B15C
:1013300001A900F0D3F8019B3BB14FF08052064B5E
:101340001A60BFF34F8FBFF36F8F03B05DF804FBDC
:10135000040100200801002004ED00E008B5024867
:1013600000F006F808BD00BF0C010020704700BF68
:1013700038B50546016841F214028C580A4B2340E7
:101380008B5014F0C00F01D0FFF7A4FF14F0010F31
:1013900002D02846FFF7C0FF14F4004F02D02846C1
:1013A000FFF7E4FF38BD00BFFBE7013843684B603F
:1013B0009A688A609A68516099600861036801338D
:1013C0000360704703694268816891608268416880
:1013D00051605A68824201D182685A6000220261DB
:1013E0001A68013A1A601868704700BF00000000D0
:1013F000074B19680868B0E8F00F80F30988BFF35D
:101400006F8F4FF0000080F311884EF00D0E704783
:10141000BC010020000000000000000000000000EF
:10142000EFF30980BFF36F8F0D4B1A6820E9F00FBF
:1014300010602DE908404FF0BF0080F3118800F0E4
:1014400011F84FF0000080F31188BDE808401968DA
:101450000868B0E8F00F80F30988BFF36F8F70471A
:10146000BC010020184B1B681BB10122174B1A60EE
:10147000704710B40022154B1A60154B1B68B3FA65
:1014800083F3DBB2C3F11F03124C9A00D118890019
:1014900021444868406848601A4492000832224457
:1014A000904205D1416803EB8302920022445160CF
:1014B00003EB83039B00074A13445B68DA68064B1F
:1014C0001A605DF8044B7047B8010020D801002075
:1014D000D401002054010020BC010020F8B5EFF336
:1014E00011854FF0BF0383F31188BFF36F8FBFF3F4
:1014F0004F8F90F84830DBB2022280F84820426CCF
:1015000001324264012B2AD10E460446154B1B685A
:101510009BB9071D3846FFF755FFE36A01229A4041
:10152000114801680A43026003EB83039B000F48E4
:1015300018443946FFF73AFF04E00D4804F118015A
:10154000FFF734FFE26A0B4B1B68DB6A9A4206D94D
:1015500016B10123336002E00122074B1A6085F3C4
:101560001188F8BDB8010020D401002054010020EA
:10157000C0010020BC010020D801002004309FE5FC
:10158000000093E51EFF2FE170000020013040E2D3
:10159000022081E0020051E101C0D11401C0E31535
:1015A000FBFFFF1A1EFF2FE1000051E1023081E036
:1015B0000100003A012040E2080000EA030050E187
:1015C0000210803002206330F9FFFF2A020073E12D
:1015D00001C0731501C06115FBFFFF1A1EFF2FE14B
:1015E000030051E101C0D11401C0E215FBFFFF1A55
:1015F0001EFF2FE10030A0E10120D3E4000052E300
:10160000FCFFFF1A030060E0010040E21EFF2FE133
:1016100000C052E2030000AA8B30A0E3003080E556
:101620000000E0E31EFF2FE1822FA0E330402DE910
:101630006CD04DE200108DE510108DE5BC20CDE1A1
:101640000C10A0010320A0E10030E0E301104C12D7
:1016500008108DE514108DE5BE30CDE10D10A0E130
:1016600078309DE50C40A0E10050A0E1610000EB66
:10167000010070E38B30A0B3003085B5000054E367
:101680000020A01300309D150020C3156CD08DE202
:101690003040BDE81EFF2FE113402DE902C0A0E15C
:1016A00001E0A0E10040A0E100308DE51C309FE5A5
:1016B0000410A0E1000093E50E20A0E10C30A0E1B1
:1016C000D2FFFFEB08D08DE21040BDE81EFF2FE1F6
:1016D00070000020F0472DE9086091E5060053E115
:1016E0000140A0E10280A0E103A0A0E13300003AA4
:1016F000BCC0D1E1120D1CE32E00000A005094E59D
:10170000101091E5142094E5057061E0822082E0DC
:10171000A22F82E0013087E2C250A0E10A3083E0CC
:10172000030055E10350A031010B1CE30090A0E140
:101730000B00000A0510A0E1850200EB006050E2FA
:101740000E00000A101094E50720A0E18EFFFFEBC9
:10175000BC30D4E1123DC3E3803083E3BC30C4E14C
:101760000D0000EA0520A0E1C50200EB006050E298
:101770000900001A0900A0E1101094E5320200EB04
:101780000C30A0E3003089E5BC30D4E1403083E385
:10179000BC30C4E10000E0E3140000EA106084E51E
:1017A000076086E0006084E50A60A0E1145084E5EB
:1017B000055067E0085084E506005AE10000002A61
:1017C0000A60A0E10620A0E1000094E50810A0E175
:1017D00074FFFFEB0000A0E3083094E5033066E0FF
:1017E000083084E5003094E5066083E0006084E51D
:1017F000F047BDE81EFF2FE1F0432DE974D04DE224
:101800000C308DE5BC30D1E1800013E30060A0E135
:101810000150A0E10280A0E10C00000A103091E527
:10182000000053E30900001A4010A0E3480200EB57
:10183000000050E30C30A003000085E5100085E5B2
:1018400000308605A500000A4030A0E3143085E58D
:101850000030A0E324308DE52030A0E32930CDE531
:101860003030A0E32A30CDE50820A0E10030D2E5F9
:10187000250053E3000053130240A0E1012082E25F
:10188000F9FFFF1A089054E00900000A0600A0E1E1
:101890000510A0E10820A0E10930A0E18CFFFFEBDA
:1018A000010070E38900000A24309DE5093083E0DF
:1018B00024308DE50030D4E5000053E38300000AB6
:1018C0000030A0E30020E0E310308DE51C308DE512
:1018D00014208DE518308DE55330CDE568308DE569
:1018E000018084E20840A0E100929FE50520A0E38A
:1018F0000900A0E10010D4E5C60100EB000050E3B0
:10190000018088E210209DE50130A01300006910DD
:101910001300821110008D15F1FFFF1A100012E361
:101920002030A0135330CD15080012E32B30A01344
:101930005330CD150030D4E52A0053E31C109D151B
:101940000430A0110B00001A0C309DE5041083E256
:10195000003093E5000053E3003063B2022082B30D
:101960000C108DE51C308DA51C308DB510208DB56B
:10197000014084E2080000EA0340A0E10020D4E531
:10198000302042E2090052E3013083E20A00A093D2
:1019900090212190F7FFFF9A1C108DE50030D4E5CF
:1019A0002E0053E31600001A0130D4E52A0053E359
:1019B000011084120020A0130800001A0C309DE5CD
:1019C000042083E2003093E5000053E30030E0B3ED
:1019D000024084E20C208DE514308DE5080000EA19
:1019E0000140A0E10030D4E5303043E2090053E388
:1019F000011081E20A00A09390322290F7FFFF9A33
:101A000014208DE5E8809FE50320A0E30010D4E5D5
:101A10000800A0E17F0100EB000050E34020A0138C
:101A200010309D15000068100140841212008311CF
:101A30000010D4E510008D150620A0E3B4009FE54A
:101A40002810CDE5730100EB000050E3018084E233
:101A50001000000AA0309FE5000053E30500001AC3
:101A60000C309DE5073083E20730C3E3083083E2A2
:101A70000C308DE5110000EA0C308DE200308DE570
:101A80000600A0E110108DE20520A0E16C309FE57A
:101A900000F020E3060000EA0C308DE200308DE516
:101AA0000600A0E110108DE20520A0E14C309FE57A
:101AB0006F0000EB010070E30070A0E10300000A7A
:101AC00024309DE5073083E024308DE565FFFFEA93
:101AD000BC30D5E1400013E324009D050000000A5E
:101AE0000000E0E374D08DE2F043BDE81EFF2FE17B
:101AF0000E2700081427000818270008000000001F
:101B0000D4160008F8432DE90290A0E10370A0E18B
:101B1000102091E5083091E5020053E10230A0B1B8
:101B2000003089E54320D1E5000052E30130831203
:101B300000308915003091E5200013E3003099153D
:101B40000230831200308915005091E5065015E2ED
:101B50000060A0E10140A0E120809DE51700000A9F
:101B60004330D4E5002094E5003093E20130A01327
:101B7000200012E31900000A3000A0E3031084E003
:101B80004300C1E5012083E24510D4E5022084E052
:101B9000023083E24310C2E5100000EA0600A0E133
:101BA0000710A0E1192084E20130A0E30FE0A0E1DA
:101BB00018FF2FE1010070E30600000A015085E2E2
:101BC0000C3094E5002099E5033062E0030055E114
:101BD000F1FFFFBAE1FFFFEA0000E0E3220000EAC4
:101BE0000600A0E10710A0E1432084E20FE0A0E19D
:101BF00018FF2FE1010070E3F6FFFF0A003099E5BE
:101C00000C5094E5055063E0003094E5063003E2A3
:101C1000043053E20130A013A53F93E10050A0131C
:101C20000090A0E3083094E5102094E5020053E111
:101C3000033062C0035085C0050059E1090000AAC5
:101C40000600A0E10710A0E11A2084E20130A0E321
:101C50000FE0A0E118FF2FE1010070E3DDFFFF0AB4
:101C6000019089E2F3FFFFEA0000A0E3F843BDE83A
:101C70001EFF2FE1F04F2DE90280A0E11820D1E5F1
:101C80001CD04DE26E0052E30390A0E10070A0E191
:101C90000140A0E140309DE543B081E28800000AA8
:101CA0000E00008A630052E31C00000A0600008A4E
:101CB000000052E39100000A580052E34520C1059C
:101CC00048C39F054400000A9D0000EA640052E3F7
:101CD0001900000A690052E31700000A980000EAA0
:101CE000730052E38900000A0700008A6F0052E384
:101CF0002400000A700052E3002091052020820396
:101D0000002081053100000A8D0000EA750052E3D1
:101D10001C00000A780052E32C00000A880000EA48
:101D2000002093E5426081E2041082E2001083E526
:101D3000003092E54230C4E5830000EA001094E5EB
:101D4000002093E5800011E3041082120010831537
:101D50000400001A400011E3041082E2001083E541
:101D6000F050D2110000001A005092E5000055E337
:101D70002D30A0B3005065B24330C4B58CC29FE58E
:101D80000AA0A0E3280000EA001094E5002093E5F3
:101D9000800011E304108212001083150400001A61
:101DA000400011E3041082E2001083E5B050D2112C
:101DB0000000001A005092E518A0D4E56F005AE325
:101DC00048C29FE508A0A0030AA0A013140000EADF
:101DD0007820A0E338C29FE54520C4E5002094E5C3
:101DE000001093E5800012E3040081E2000083E527
:101DF0000200001A400012E3B050D1110000001A96
:101E0000005091E510A0A0E3010012E3202082130E
:101E100000208415000055E3003094052030C303F2
:101E2000003084050030A0E34330C4E5043094E57D
:101E3000000053E3002094A50420C2A3002084A541
:101E4000000055E3083084E50B60A0E10100001AB2
:101E5000000053E30C00000A0500A0E10A10A0E115
:101E60000CC08DE5780100EB0CC09DE50130DCE78E
:101E70000500A0E1013066E50A10A0E1350100EBA4
:101E80000CC09DE5005050E2F1FFFFEA08005AE364
:101E90000800001A003094E5010013E30500000A71
:101EA000103094E5042094E5030052E13030A0D3D3
:101EB000013046D5016046D20BB066E010B084E533
:101EC000250000EA000091E5002093E5800010E382
:101ED00004008212141091E5000083150030921561
:101EE0000500001A400010E3040082E2000083E5D0
:101EF000003092E5B010C3110000001A001083E515
:101F00000030A0E30B60A0E1103084E5120000EA8D
:101F1000002093E5041082E2001083E5006092E562
:101F20000010A0E30600A0E1042094E5390000EBD6
:101F3000000050E30000661004008415043094E5AE
:101F4000020000EA4220C4E5426084E20130A0E3DE
:101F5000103084E50030A0E34330C4E500908DE507
:101F60000700A0E10410A0E114208DE20830A0E1F8
:101F7000E3FEFFEB010070E30100001A0000E0E364
:101F80001F0000EA0700A0E10810A0E10620A0E180
:101F9000103094E50FE0A0E119FF2FE1010070E39C
:101FA000F5FFFF0A003094E5020013E30400001A75
:101FB0000C0094E514309DE5030050E10300A0B14E
:101FC0000F0000EA0050A0E30C3094E514209DE5DA
:101FD000033062E0030055E1F4FFFFAA0700A0E12F
:101FE0000810A0E1192084E20130A0E30FE0A0E195
:101FF00019FF2FE1010070E3DFFFFF0A015085E2C6
:10200000F0FFFFEA1CD08DE2F04FBDE81EFF2FE18C
:102010001F27000830270008FF1001E2022080E09F
:10202000020050E10030A0E10500000A00C0D3E545
:1020300001005CE1010080E2F8FFFF1A0300A0E16B
:102040001EFF2FE10000A0E31EFF2FE1000051E37F
:102050001EFF2F01042011E5043041E2EC109FE542
:10206000000052E3023083B0002091E5000052E30B
:1020700001C0A0E104208305003081051EFF2F016F
:10208000020053E10900002A001093E5010083E0FB
:10209000020050E101209307021081000420900506
:1020A00000108305042083E500308CE51EFF2FE13E
:1020B00004C092E503005CE10010A0830110A0932E
:1020C00000005CE30010A003000051E30C20A0110D
:1020D000F6FFFF1A001092E504E02DE501E082E032
:1020E00003005EE10A00001A003093E5033081E04E
:1020F0000210A0E1033081E60C0051E11100001A4A
:10210000030092E7003083E0003082E5043091E57F
:102110000B0000EA0C30A083003080850900008AA3
:10212000001093E5010083E00C0050E101C093072B
:102130000C108100001083050410900504C0831565
:1021400004108305043082E504E09DE41EFF2FE1C6
:10215000E001002070402DE9034081E20340C4E328
:10216000084084E20C0054E30C40A033010054E129
:102170000010A0230110A033A43F91E10050A0E182
:102180000300000A0C30A0E30000A0E3003085E566
:10219000370000EAE0209FE5003092E50200A0E170
:1021A0000310A0E1000051E31100000A002091E5B6
:1021B000042052E00B00004A0B0052E30130A081E2
:1021C00002208386024081871B00008A010053E1C0
:1021D0000420930504209115002080050420831518
:1021E0000130A011140000EA0130A0E1041091E5D3
:1021F000EBFFFFEA84609FE5003096E5000053E3C3
:102200000200001A0500A0E13C0000EB000086E59A
:102210000500A0E10410A0E1380000EB010070E32C
:102220000030A0E1D6FFFF0A036080E20360C6E34E
:10223000000056E10700001A004083E50B0083E22E
:10224000042083E20700C0E3022050E00010621285
:1022500002108317060000EA0500A0E1061063E003
:10226000260000EB010070E3C5FFFF0A0630A0E185
:10227000F0FFFFEA7040BDE81EFF2FE1E001002003
:10228000DC010020F8402DE9006051E20250A0E19D
:102290000200001A0210A0E1ADFFFFEB150000EAFA
:1022A000000052E30200001A67FFFFEB0500A0E107
:1022B000100000EA0070A0E11F0000EB050050E1F3
:1022C0000600A0210B00002A0700A0E10510A0E1F4
:1022D0009FFFFFEB004050E20500000A0610A0E15E
:1022E0000520A0E1A8FCFFEB0700A0E10610A0E19B
:1022F00055FFFFEB0400A0E1F840BDE81EFF2FE111
:1023000038402DE90030A0E328409FE50050A0E1CF
:102310000100A0E1003084E5DDFAFFFA010070E37E
:102320000200001A003094E5000053E300308515E8
:102330003840BDE81EFF2FE1E8010020040011E550
:10234000000050E3001081B0043011B5030080B0EC
:10235000040040E21EFF2FE1012051E21EFF2F0189
:102360003600003A010050E12200009A020011E11B
:102370002300000A0E0211E38111A0010830A0031E
:102380000130A013010251E3000051310112A031CC
:102390000332A031FAFFFF3A020151E3000051314C
:1023A0008110A0318330A031FAFFFF3A0020A0E372
:1023B000010050E10100402003208221A10050E1F2
:1023C000A1004020A3208221210150E121014020D1
:1023D00023218221A10150E1A1014020A3218221DA
:1023E000000050E32332B0112112A011EFFFFF1AB9
:1023F0000200A0E11EFF2FE10100A0030000A013D6
:102400001EFF2FE1010851E32118A0211020A02375
:102410000020A033010C51E32114A02108208222C6
:10242000100051E32112A02104208222040051E374
:1024300003208282A12082903002A0E11EFF2FE1C2
:10244000000050E30000E013070000EA000051E341
:10245000FAFFFF0A03402DE9BEFFFFEB0640BDE88F
:10246000920003E0031041E01EFF2FE11EFF2FE169
:102470002E2E2F73797374656D2F7372632F73749F
:102480006D333266372D68616C2F73746D3332662D
:102490003778785F68616C5F636F727465782E63FC
:1024A000000000002E2E2F73797374656D2F7372E8
:1024B000632F73746D333266372D68616C2F7374BC
:1024C0006D3332663778785F68616C5F7263632E54
:1024D000630000002E2E2F73797374656D2F737255
:1024E000632F73746D333266372D68616C2F73748C
:1024F0006D3332663778785F68616C5F7263635FF3
:1025000065782E630000000061626F727428292CC8
:102510002065786974696E672E2E2E002C206675F2
:102520006E6374696F6E3A2000000000617373651A
:102530007274696F6E2022257322206661696C6552
:10254000643A2066696C6520222573222C206C6910
:102550006E65202564257325730A00006173736519
:1025600072745F706172616D2829206661696C65A3
:10257000643A2066696C6520222573222C206C69E0
:102580006E652025640A00006D61696E28617267BE
:10259000633D25642C20617267763D5B000000007E
:1025A0002C20000022257322000000005D293B0A38
:1025B00000000000537461636B206672616D653AC0
:1025C0000A000000205230203D2020253038580AD3
:1025D00000000000205231203D2020253038580ACC
:1025E00000000000205232203D2020253038580ABB
:1025F00000000000205233203D2020253038580AAA
:102600000000000020523132203D20253038580A89
:1026100000000000204C52203D2020253038580A70
:1026200000000000205043203D2020253038580A6B
:102630000000000020505352203D20253038580A19
:10264000000000004653522F4641523A0A00000053
:102650002043465352203D2020253038580A0000A0
:102660002048465352203D2020253038580A00008B
:102670002044465352203D2020253038580A00007F
:102680002041465352203D2020253038580A000072
:10269000204D4D464152203D20253038580A00003B
:1026A0002042464152203D2020253038580A000063
:1026B0004D6973630A000000204C522F4558435F58
:1026C00052455455524E3D20253038580A000000DE
:1026D0005B486172644661756C745D0A00000000BD
:1026E0005B4275734661756C745D0A005B5573617E
:1026F00067654661756C745D0A00000000000000AB
:102700000000000001020304060708094300232D0E
:10271000302B2000686C4C006566674546470030EA
:102720003132333435363738394142434445460037
:102730003031323334353637383961626364656637
:012740000098
:102744007856341280000020000000000024F400B9
:102754000000000000000000000000000000000075
:102764000000000000000000000000000000000065
:102774000C2700080000000000000000000000001A
:102784000000000000000000000000000000000045
:102794000000000000000000000000000000000035
:1027A4000000000000000000000000000000000025
:0827B400100000203254769859
:04000005080001F9F5
:00000001FF
